{
  "_format": "hh-sol-artifact-1",
  "contractName": "CQMToken",
  "sourceName": "contracts/CQMToken.sol",
  "abi": [
    {
      "inputs": [
        {
          "internalType": "address",
          "name": "initialOwner",
          "type": "address"
        }
      ],
      "stateMutability": "nonpayable",
      "type": "constructor"
    },
    {
      "inputs": [
        {
          "internalType": "uint256",
          "name": "deadline",
          "type": "uint256"
        }
      ],
      "name": "CQMExpiredSignature",
      "type": "error"
    },
    {
      "inputs": [
        {
          "internalType": "address",
          "name": "signer",
          "type": "address"
        },
        {
          "internalType": "address",
          "name": "owner",
          "type": "address"
        }
      ],
      "name": "CQMInvalidSigner",
      "type": "error"
    },
    {
      "inputs": [],
      "name": "ECDSAInvalidSignature",
      "type": "error"
    },
    {
      "inputs": [
        {
          "internalType": "uint256",
          "name": "length",
          "type": "uint256"
        }
      ],
      "name": "ECDSAInvalidSignatureLength",
      "type": "error"
    },
    {
      "inputs": [
        {
          "internalType": "bytes32",
          "name": "s",
          "type": "bytes32"
        }
      ],
      "name": "ECDSAInvalidSignatureS",
      "type": "error"
    },
    {
      "inputs": [
        {
          "internalType": "address",
          "name": "spender",
          "type": "address"
        },
        {
          "internalType": "uint256",
          "name": "allowance",
          "type": "uint256"
        },
        {
          "internalType": "uint256",
          "name": "needed",
          "type": "uint256"
        }
      ],
      "name": "ERC20InsufficientAllowance",
      "type": "error"
    },
    {
      "inputs": [
        {
          "internalType": "address",
          "name": "sender",
          "type": "address"
        },
        {
          "internalType": "uint256",
          "name": "balance",
          "type": "uint256"
        },
        {
          "internalType": "uint256",
          "name": "needed",
          "type": "uint256"
        }
      ],
      "name": "ERC20InsufficientBalance",
      "type": "error"
    },
    {
      "inputs": [
        {
          "internalType": "address",
          "name": "approver",
          "type": "address"
        }
      ],
      "name": "ERC20InvalidApprover",
      "type": "error"
    },
    {
      "inputs": [
        {
          "internalType": "address",
          "name": "receiver",
          "type": "address"
        }
      ],
      "name": "ERC20InvalidReceiver",
      "type": "error"
    },
    {
      "inputs": [
        {
          "internalType": "address",
          "name": "sender",
          "type": "address"
        }
      ],
      "name": "ERC20InvalidSender",
      "type": "error"
    },
    {
      "inputs": [
        {
          "internalType": "address",
          "name": "spender",
          "type": "address"
        }
      ],
      "name": "ERC20InvalidSpender",
      "type": "error"
    },
    {
      "inputs": [
        {
          "internalType": "uint256",
          "name": "deadline",
          "type": "uint256"
        }
      ],
      "name": "ERC2612ExpiredSignature",
      "type": "error"
    },
    {
      "inputs": [
        {
          "internalType": "address",
          "name": "signer",
          "type": "address"
        },
        {
          "internalType": "address",
          "name": "owner",
          "type": "address"
        }
      ],
      "name": "ERC2612InvalidSigner",
      "type": "error"
    },
    {
      "inputs": [
        {
          "internalType": "address",
          "name": "account",
          "type": "address"
        },
        {
          "internalType": "uint256",
          "name": "currentNonce",
          "type": "uint256"
        }
      ],
      "name": "InvalidAccountNonce",
      "type": "error"
    },
    {
      "inputs": [],
      "name": "InvalidShortString",
      "type": "error"
    },
    {
      "inputs": [
        {
          "internalType": "address",
          "name": "owner",
          "type": "address"
        }
      ],
      "name": "OwnableInvalidOwner",
      "type": "error"
    },
    {
      "inputs": [
        {
          "internalType": "address",
          "name": "account",
          "type": "address"
        }
      ],
      "name": "OwnableUnauthorizedAccount",
      "type": "error"
    },
    {
      "inputs": [
        {
          "internalType": "string",
          "name": "str",
          "type": "string"
        }
      ],
      "name": "StringTooLong",
      "type": "error"
    },
    {
      "anonymous": false,
      "inputs": [
        {
          "indexed": true,
          "internalType": "address",
          "name": "owner",
          "type": "address"
        },
        {
          "indexed": true,
          "internalType": "address",
          "name": "spender",
          "type": "address"
        },
        {
          "indexed": false,
          "internalType": "uint256",
          "name": "value",
          "type": "uint256"
        }
      ],
      "name": "Approval",
      "type": "event"
    },
    {
      "anonymous": false,
      "inputs": [],
      "name": "EIP712DomainChanged",
      "type": "event"
    },
    {
      "anonymous": false,
      "inputs": [
        {
          "indexed": true,
          "internalType": "address",
          "name": "previousOwner",
          "type": "address"
        },
        {
          "indexed": true,
          "internalType": "address",
          "name": "newOwner",
          "type": "address"
        }
      ],
      "name": "OwnershipTransferStarted",
      "type": "event"
    },
    {
      "anonymous": false,
      "inputs": [
        {
          "indexed": true,
          "internalType": "address",
          "name": "previousOwner",
          "type": "address"
        },
        {
          "indexed": true,
          "internalType": "address",
          "name": "newOwner",
          "type": "address"
        }
      ],
      "name": "OwnershipTransferred",
      "type": "event"
    },
    {
      "anonymous": false,
      "inputs": [
        {
          "indexed": true,
          "internalType": "address",
          "name": "from",
          "type": "address"
        },
        {
          "indexed": true,
          "internalType": "address",
          "name": "to",
          "type": "address"
        },
        {
          "indexed": false,
          "internalType": "uint256",
          "name": "value",
          "type": "uint256"
        }
      ],
      "name": "Transfer",
      "type": "event"
    },
    {
      "inputs": [],
      "name": "DOMAIN_SEPARATOR",
      "outputs": [
        {
          "internalType": "bytes32",
          "name": "",
          "type": "bytes32"
        }
      ],
      "stateMutability": "view",
      "type": "function"
    },
    {
      "inputs": [],
      "name": "acceptOwnership",
      "outputs": [],
      "stateMutability": "nonpayable",
      "type": "function"
    },
    {
      "inputs": [
        {
          "internalType": "address",
          "name": "owner",
          "type": "address"
        },
        {
          "internalType": "address",
          "name": "spender",
          "type": "address"
        }
      ],
      "name": "allowance",
      "outputs": [
        {
          "internalType": "uint256",
          "name": "",
          "type": "uint256"
        }
      ],
      "stateMutability": "view",
      "type": "function"
    },
    {
      "inputs": [
        {
          "internalType": "address",
          "name": "spender",
          "type": "address"
        },
        {
          "internalType": "uint256",
          "name": "value",
          "type": "uint256"
        }
      ],
      "name": "approve",
      "outputs": [
        {
          "internalType": "bool",
          "name": "",
          "type": "bool"
        }
      ],
      "stateMutability": "nonpayable",
      "type": "function"
    },
    {
      "inputs": [
        {
          "internalType": "address",
          "name": "account",
          "type": "address"
        }
      ],
      "name": "balanceOf",
      "outputs": [
        {
          "internalType": "uint256",
          "name": "",
          "type": "uint256"
        }
      ],
      "stateMutability": "view",
      "type": "function"
    },
    {
      "inputs": [
        {
          "internalType": "uint256",
          "name": "value",
          "type": "uint256"
        }
      ],
      "name": "burn",
      "outputs": [],
      "stateMutability": "nonpayable",
      "type": "function"
    },
    {
      "inputs": [
        {
          "internalType": "address",
          "name": "account",
          "type": "address"
        },
        {
          "internalType": "uint256",
          "name": "value",
          "type": "uint256"
        }
      ],
      "name": "burnFrom",
      "outputs": [],
      "stateMutability": "nonpayable",
      "type": "function"
    },
    {
      "inputs": [],
      "name": "decimals",
      "outputs": [
        {
          "internalType": "uint8",
          "name": "",
          "type": "uint8"
        }
      ],
      "stateMutability": "view",
      "type": "function"
    },
    {
      "inputs": [],
      "name": "eip712Domain",
      "outputs": [
        {
          "internalType": "bytes1",
          "name": "fields",
          "type": "bytes1"
        },
        {
          "internalType": "string",
          "name": "name",
          "type": "string"
        },
        {
          "internalType": "string",
          "name": "version",
          "type": "string"
        },
        {
          "internalType": "uint256",
          "name": "chainId",
          "type": "uint256"
        },
        {
          "internalType": "address",
          "name": "verifyingContract",
          "type": "address"
        },
        {
          "internalType": "bytes32",
          "name": "salt",
          "type": "bytes32"
        },
        {
          "internalType": "uint256[]",
          "name": "extensions",
          "type": "uint256[]"
        }
      ],
      "stateMutability": "view",
      "type": "function"
    },
    {
      "inputs": [
        {
          "internalType": "address",
          "name": "from",
          "type": "address"
        },
        {
          "internalType": "address",
          "name": "to",
          "type": "address"
        },
        {
          "internalType": "uint256",
          "name": "amount",
          "type": "uint256"
        },
        {
          "internalType": "uint256",
          "name": "deadline",
          "type": "uint256"
        },
        {
          "internalType": "uint8",
          "name": "v",
          "type": "uint8"
        },
        {
          "internalType": "bytes32",
          "name": "r",
          "type": "bytes32"
        },
        {
          "internalType": "bytes32",
          "name": "s",
          "type": "bytes32"
        }
      ],
      "name": "metaTransfer",
      "outputs": [],
      "stateMutability": "nonpayable",
      "type": "function"
    },
    {
      "inputs": [
        {
          "internalType": "address",
          "name": "to",
          "type": "address"
        },
        {
          "internalType": "uint256",
          "name": "amount",
          "type": "uint256"
        }
      ],
      "name": "mint",
      "outputs": [],
      "stateMutability": "nonpayable",
      "type": "function"
    },
    {
      "inputs": [],
      "name": "name",
      "outputs": [
        {
          "internalType": "string",
          "name": "",
          "type": "string"
        }
      ],
      "stateMutability": "view",
      "type": "function"
    },
    {
      "inputs": [
        {
          "internalType": "address",
          "name": "owner",
          "type": "address"
        }
      ],
      "name": "nonces",
      "outputs": [
        {
          "internalType": "uint256",
          "name": "",
          "type": "uint256"
        }
      ],
      "stateMutability": "view",
      "type": "function"
    },
    {
      "inputs": [],
      "name": "owner",
      "outputs": [
        {
          "internalType": "address",
          "name": "",
          "type": "address"
        }
      ],
      "stateMutability": "view",
      "type": "function"
    },
    {
      "inputs": [],
      "name": "pendingOwner",
      "outputs": [
        {
          "internalType": "address",
          "name": "",
          "type": "address"
        }
      ],
      "stateMutability": "view",
      "type": "function"
    },
    {
      "inputs": [
        {
          "internalType": "address",
          "name": "owner",
          "type": "address"
        },
        {
          "internalType": "address",
          "name": "spender",
          "type": "address"
        },
        {
          "internalType": "uint256",
          "name": "value",
          "type": "uint256"
        },
        {
          "internalType": "uint256",
          "name": "deadline",
          "type": "uint256"
        },
        {
          "internalType": "uint8",
          "name": "v",
          "type": "uint8"
        },
        {
          "internalType": "bytes32",
          "name": "r",
          "type": "bytes32"
        },
        {
          "internalType": "bytes32",
          "name": "s",
          "type": "bytes32"
        }
      ],
      "name": "permit",
      "outputs": [],
      "stateMutability": "nonpayable",
      "type": "function"
    },
    {
      "inputs": [],
      "name": "renounceOwnership",
      "outputs": [],
      "stateMutability": "nonpayable",
      "type": "function"
    },
    {
      "inputs": [],
      "name": "symbol",
      "outputs": [
        {
          "internalType": "string",
          "name": "",
          "type": "string"
        }
      ],
      "stateMutability": "view",
      "type": "function"
    },
    {
      "inputs": [],
      "name": "totalSupply",
      "outputs": [
        {
          "internalType": "uint256",
          "name": "",
          "type": "uint256"
        }
      ],
      "stateMutability": "view",
      "type": "function"
    },
    {
      "inputs": [
        {
          "internalType": "address",
          "name": "to",
          "type": "address"
        },
        {
          "internalType": "uint256",
          "name": "value",
          "type": "uint256"
        }
      ],
      "name": "transfer",
      "outputs": [
        {
          "internalType": "bool",
          "name": "",
          "type": "bool"
        }
      ],
      "stateMutability": "nonpayable",
      "type": "function"
    },
    {
      "inputs": [
        {
          "internalType": "address",
          "name": "from",
          "type": "address"
        },
        {
          "internalType": "address",
          "name": "to",
          "type": "address"
        },
        {
          "internalType": "uint256",
          "name": "value",
          "type": "uint256"
        }
      ],
      "name": "transferFrom",
      "outputs": [
        {
          "internalType": "bool",
          "name": "",
          "type": "bool"
        }
      ],
      "stateMutability": "nonpayable",
      "type": "function"
    },
    {
      "inputs": [
        {
          "internalType": "address",
          "name": "newOwner",
          "type": "address"
        }
      ],
      "name": "transferOwnership",
      "outputs": [],
      "stateMutability": "nonpayable",
      "type": "function"
    }
  ],
  "bytecode": "0x61016060405234801561001157600080fd5b50604051612db7380380612db7833981810160405281019061003391906104df565b6040518060400160405280600881526020017f43514d546f6b656e000000000000000000000000000000000000000000000000815250806040518060400160405280600181526020017f3100000000000000000000000000000000000000000000000000000000000000815250836040518060400160405280600381526020017f43514d00000000000000000000000000000000000000000000000000000000008152506040518060400160405280600381526020017f43514d0000000000000000000000000000000000000000000000000000000000815250816003908161011c919061075c565b50806004908161012c919061075c565b505050600073ffffffffffffffffffffffffffffffffffffffff168173ffffffffffffffffffffffffffffffffffffffff16036101a15760006040517f1e4fbdf7000000000000000000000000000000000000000000000000000000008152600401610198919061083d565b60405180910390fd5b6101b08161026260201b60201c565b506101c560078361029960201b90919060201c565b61012081815250506101e160088261029960201b90919060201c565b6101408181525050818051906020012060e08181525050808051906020012061010081815250504660a0818152505061021e6102e960201b60201c565b608081815250503073ffffffffffffffffffffffffffffffffffffffff1660c08173ffffffffffffffffffffffffffffffffffffffff168152505050505050610a11565b600660006101000a81549073ffffffffffffffffffffffffffffffffffffffff02191690556102968161034460201b60201c565b50565b60006020835110156102bb576102b48361040a60201b60201c565b90506102e3565b826102cb8361047260201b60201c565b60000190816102da919061075c565b5060ff60001b90505b92915050565b60007f8b73c3c69bb8fe3d512ecc4cf759cc79239f7b179b0ffacaa9a75d522b39400f60e051610100514630604051602001610329959493929190610880565b60405160208183030381529060405280519060200120905090565b6000600560009054906101000a900473ffffffffffffffffffffffffffffffffffffffff16905081600560006101000a81548173ffffffffffffffffffffffffffffffffffffffff021916908373ffffffffffffffffffffffffffffffffffffffff1602179055508173ffffffffffffffffffffffffffffffffffffffff168173ffffffffffffffffffffffffffffffffffffffff167f8be0079c531659141344cd1fd0a4f28419497f9722a3daafe3b4186f6b6457e060405160405180910390a35050565b600080829050601f8151111561045757826040517f305a27a900000000000000000000000000000000000000000000000000000000815260040161044e9190610958565b60405180910390fd5b805181610463906109aa565b60001c1760001b915050919050565b6000819050919050565b600080fd5b600073ffffffffffffffffffffffffffffffffffffffff82169050919050565b60006104ac82610481565b9050919050565b6104bc816104a1565b81146104c757600080fd5b50565b6000815190506104d9816104b3565b92915050565b6000602082840312156104f5576104f461047c565b5b6000610503848285016104ca565b91505092915050565b600081519050919050565b7f4e487b7100000000000000000000000000000000000000000000000000000000600052604160045260246000fd5b7f4e487b7100000000000000000000000000000000000000000000000000000000600052602260045260246000fd5b6000600282049050600182168061058d57607f821691505b6020821081036105a05761059f610546565b5b50919050565b60008190508160005260206000209050919050565b60006020601f8301049050919050565b600082821b905092915050565b6000600883026106087fffffffffffffffffffffffffffffffffffffffffffffffffffffffffffffffff826105cb565b61061286836105cb565b95508019841693508086168417925050509392505050565b6000819050919050565b6000819050919050565b600061065961065461064f8461062a565b610634565b61062a565b9050919050565b6000819050919050565b6106738361063e565b61068761067f82610660565b8484546105d8565b825550505050565b600090565b61069c61068f565b6106a781848461066a565b505050565b5b818110156106cb576106c0600082610694565b6001810190506106ad565b5050565b601f821115610710576106e1816105a6565b6106ea846105bb565b810160208510156106f9578190505b61070d610705856105bb565b8301826106ac565b50505b505050565b600082821c905092915050565b600061073360001984600802610715565b1980831691505092915050565b600061074c8383610722565b9150826002028217905092915050565b6107658261050c565b67ffffffffffffffff81111561077e5761077d610517565b5b6107888254610575565b6107938282856106cf565b600060209050601f8311600181146107c657600084156107b4578287015190505b6107be8582610740565b865550610826565b601f1984166107d4866105a6565b60005b828110156107fc578489015182556001820191506020850194506020810190506107d7565b868310156108195784890151610815601f891682610722565b8355505b6001600288020188555050505b505050505050565b610837816104a1565b82525050565b6000602082019050610852600083018461082e565b92915050565b6000819050919050565b61086b81610858565b82525050565b61087a8161062a565b82525050565b600060a0820190506108956000830188610862565b6108a26020830187610862565b6108af6040830186610862565b6108bc6060830185610871565b6108c9608083018461082e565b9695505050505050565b600082825260208201905092915050565b60005b838110156109025780820151818401526020810190506108e7565b60008484015250505050565b6000601f19601f8301169050919050565b600061092a8261050c565b61093481856108d3565b93506109448185602086016108e4565b61094d8161090e565b840191505092915050565b60006020820190508181036000830152610972818461091f565b905092915050565b600081519050919050565b6000819050602082019050919050565b60006109a18251610858565b80915050919050565b60006109b58261097a565b826109bf84610985565b90506109ca81610995565b92506020821015610a0a57610a057fffffffffffffffffffffffffffffffffffffffffffffffffffffffffffffffff836020036008026105cb565b831692505b5050919050565b60805160a05160c05160e05161010051610120516101405161234c610a6b6000396000611121015260006110e60152600061182e0152600061180d01526000610e2501526000610e7b01526000610ea4015261234c6000f3fe608060405234801561001057600080fd5b50600436106101425760003560e01c806379ba5097116100b857806395d89b411161007c57806395d89b4114610345578063a9059cbb14610363578063d505accf14610393578063dd62ed3e146103af578063e30c3978146103df578063f2fde38b146103fd57610142565b806379ba5097146102ad57806379cc6790146102b75780637ecebe00146102d357806384b0196e146103035780638da5cb5b1461032757610142565b8063313ce5671161010a578063313ce567146101ff5780633644e5151461021d57806340c10f191461023b57806342966c681461025757806370a0823114610273578063715018a6146102a357610142565b806306fdde0314610147578063095ea7b31461016557806318160ddd1461019557806323b872dd146101b357806328033188146101e3575b600080fd5b61014f610419565b60405161015c9190611b48565b60405180910390f35b61017f600480360381019061017a9190611c03565b6104ab565b60405161018c9190611c5e565b60405180910390f35b61019d6104ce565b6040516101aa9190611c88565b60405180910390f35b6101cd60048036038101906101c89190611ca3565b6104d8565b6040516101da9190611c5e565b60405180910390f35b6101fd60048036038101906101f89190611d65565b610507565b005b61020761064f565b6040516102149190611e16565b60405180910390f35b610225610658565b6040516102329190611e40565b60405180910390f35b61025560048036038101906102509190611c03565b610667565b005b610271600480360381019061026c9190611e5b565b61067d565b005b61028d60048036038101906102889190611e88565b610691565b60405161029a9190611c88565b60405180910390f35b6102ab6106d9565b005b6102b56106ed565b005b6102d160048036038101906102cc9190611c03565b61077c565b005b6102ed60048036038101906102e89190611e88565b61079c565b6040516102fa9190611c88565b60405180910390f35b61030b6107ae565b60405161031e9796959493929190611fbd565b60405180910390f35b61032f610858565b60405161033c9190612041565b60405180910390f35b61034d610882565b60405161035a9190611b48565b60405180910390f35b61037d60048036038101906103789190611c03565b610914565b60405161038a9190611c5e565b60405180910390f35b6103ad60048036038101906103a89190611d65565b610937565b005b6103c960048036038101906103c4919061205c565b610a7f565b6040516103d69190611c88565b60405180910390f35b6103e7610b06565b6040516103f49190612041565b60405180910390f35b61041760048036038101906104129190611e88565b610b30565b005b606060038054610428906120cb565b80601f0160208091040260200160405190810160405280929190818152602001828054610454906120cb565b80156104a15780601f10610476576101008083540402835291602001916104a1565b820191906000526020600020905b81548152906001019060200180831161048457829003601f168201915b5050505050905090565b6000806104b6610bdd565b90506104c3818585610be5565b600191505092915050565b6000600254905090565b6000806104e3610bdd565b90506104f0858285610bf7565b6104fb858585610c8c565b60019150509392505050565b8342111561054c57836040517f473e97230000000000000000000000000000000000000000000000000000000081526004016105439190611c88565b60405180910390fd5b60007f4144f681a2e4d6d2035dcbc0720f95d08cc1779083c71290e8a4bb4c1529f59e88888861057b8c610d80565b89604051602001610591969594939291906120fc565b60405160208183030381529060405280519060200120905060006105b482610dd7565b905060006105c482878787610df1565b90508973ffffffffffffffffffffffffffffffffffffffff168173ffffffffffffffffffffffffffffffffffffffff161461063857808a6040517f973481e000000000000000000000000000000000000000000000000000000000815260040161062f92919061215d565b60405180910390fd5b610643818a8a610c8c565b50505050505050505050565b60006012905090565b6000610662610e21565b905090565b61066f610ed8565b6106798282610f5f565b5050565b61068e610688610bdd565b82610fe1565b50565b60008060008373ffffffffffffffffffffffffffffffffffffffff1673ffffffffffffffffffffffffffffffffffffffff168152602001908152602001600020549050919050565b6106e1610ed8565b6106eb6000611063565b565b60006106f7610bdd565b90508073ffffffffffffffffffffffffffffffffffffffff16610718610b06565b73ffffffffffffffffffffffffffffffffffffffff161461077057806040517f118cdaa70000000000000000000000000000000000000000000000000000000081526004016107679190612041565b60405180910390fd5b61077981611063565b50565b61078e82610788610bdd565b83610bf7565b6107988282610fe1565b5050565b60006107a782611094565b9050919050565b6000606080600080600060606107c26110dd565b6107ca611118565b46306000801b600067ffffffffffffffff8111156107eb576107ea612186565b5b6040519080825280602002602001820160405280156108195781602001602082028036833780820191505090505b507f0f00000000000000000000000000000000000000000000000000000000000000959493929190965096509650965096509650965090919293949596565b6000600560009054906101000a900473ffffffffffffffffffffffffffffffffffffffff16905090565b606060048054610891906120cb565b80601f01602080910402602001604051908101604052809291908181526020018280546108bd906120cb565b801561090a5780601f106108df5761010080835404028352916020019161090a565b820191906000526020600020905b8154815290600101906020018083116108ed57829003601f168201915b5050505050905090565b60008061091f610bdd565b905061092c818585610c8c565b600191505092915050565b8342111561097c57836040517f627913020000000000000000000000000000000000000000000000000000000081526004016109739190611c88565b60405180910390fd5b60007f6e71edae12b1b97f4d1f60370fef10105fa2faae0126114a169c64845d6126c98888886109ab8c610d80565b896040516020016109c1969594939291906120fc565b60405160208183030381529060405280519060200120905060006109e482610dd7565b905060006109f482878787610df1565b90508973ffffffffffffffffffffffffffffffffffffffff168173ffffffffffffffffffffffffffffffffffffffff1614610a6857808a6040517f4b800e46000000000000000000000000000000000000000000000000000000008152600401610a5f92919061215d565b60405180910390fd5b610a738a8a8a610be5565b50505050505050505050565b6000600160008473ffffffffffffffffffffffffffffffffffffffff1673ffffffffffffffffffffffffffffffffffffffff16815260200190815260200160002060008373ffffffffffffffffffffffffffffffffffffffff1673ffffffffffffffffffffffffffffffffffffffff16815260200190815260200160002054905092915050565b6000600660009054906101000a900473ffffffffffffffffffffffffffffffffffffffff16905090565b610b38610ed8565b80600660006101000a81548173ffffffffffffffffffffffffffffffffffffffff021916908373ffffffffffffffffffffffffffffffffffffffff1602179055508073ffffffffffffffffffffffffffffffffffffffff16610b98610858565b73ffffffffffffffffffffffffffffffffffffffff167f38d16b8cac22d99fc7c124b9cd0de2d3fa1faef420bfe791d8c362d765e2270060405160405180910390a350565b600033905090565b610bf28383836001611153565b505050565b6000610c038484610a7f565b90507fffffffffffffffffffffffffffffffffffffffffffffffffffffffffffffffff811015610c865781811015610c76578281836040517ffb8f41b2000000000000000000000000000000000000000000000000000000008152600401610c6d939291906121b5565b60405180910390fd5b610c8584848484036000611153565b5b50505050565b600073ffffffffffffffffffffffffffffffffffffffff168373ffffffffffffffffffffffffffffffffffffffff1603610cfe5760006040517f96c6fd1e000000000000000000000000000000000000000000000000000000008152600401610cf59190612041565b60405180910390fd5b600073ffffffffffffffffffffffffffffffffffffffff168273ffffffffffffffffffffffffffffffffffffffff1603610d705760006040517fec442f05000000000000000000000000000000000000000000000000000000008152600401610d679190612041565b60405180910390fd5b610d7b83838361132a565b505050565b6000600960008373ffffffffffffffffffffffffffffffffffffffff1673ffffffffffffffffffffffffffffffffffffffff1681526020019081526020016000206000815480929190600101919050559050919050565b6000610dea610de4610e21565b8361154f565b9050919050565b600080600080610e0388888888611590565b925092509250610e138282611684565b829350505050949350505050565b60007f000000000000000000000000000000000000000000000000000000000000000073ffffffffffffffffffffffffffffffffffffffff163073ffffffffffffffffffffffffffffffffffffffff16148015610e9d57507f000000000000000000000000000000000000000000000000000000000000000046145b15610eca577f00000000000000000000000000000000000000000000000000000000000000009050610ed5565b610ed26117e8565b90505b90565b610ee0610bdd565b73ffffffffffffffffffffffffffffffffffffffff16610efe610858565b73ffffffffffffffffffffffffffffffffffffffff1614610f5d57610f21610bdd565b6040517f118cdaa7000000000000000000000000000000000000000000000000000000008152600401610f549190612041565b60405180910390fd5b565b600073ffffffffffffffffffffffffffffffffffffffff168273ffffffffffffffffffffffffffffffffffffffff1603610fd15760006040517fec442f05000000000000000000000000000000000000000000000000000000008152600401610fc89190612041565b60405180910390fd5b610fdd6000838361132a565b5050565b600073ffffffffffffffffffffffffffffffffffffffff168273ffffffffffffffffffffffffffffffffffffffff16036110535760006040517f96c6fd1e00000000000000000000000000000000000000000000000000000000815260040161104a9190612041565b60405180910390fd5b61105f8260008361132a565b5050565b600660006101000a81549073ffffffffffffffffffffffffffffffffffffffff02191690556110918161187e565b50565b6000600960008373ffffffffffffffffffffffffffffffffffffffff1673ffffffffffffffffffffffffffffffffffffffff168152602001908152602001600020549050919050565b606061111360077f000000000000000000000000000000000000000000000000000000000000000061194490919063ffffffff16565b905090565b606061114e60087f000000000000000000000000000000000000000000000000000000000000000061194490919063ffffffff16565b905090565b600073ffffffffffffffffffffffffffffffffffffffff168473ffffffffffffffffffffffffffffffffffffffff16036111c55760006040517fe602df050000000000000000000000000000000000000000000000000000000081526004016111bc9190612041565b60405180910390fd5b600073ffffffffffffffffffffffffffffffffffffffff168373ffffffffffffffffffffffffffffffffffffffff16036112375760006040517f94280d6200000000000000000000000000000000000000000000000000000000815260040161122e9190612041565b60405180910390fd5b81600160008673ffffffffffffffffffffffffffffffffffffffff1673ffffffffffffffffffffffffffffffffffffffff16815260200190815260200160002060008573ffffffffffffffffffffffffffffffffffffffff1673ffffffffffffffffffffffffffffffffffffffff168152602001908152602001600020819055508015611324578273ffffffffffffffffffffffffffffffffffffffff168473ffffffffffffffffffffffffffffffffffffffff167f8c5be1e5ebec7d5bd14f71427d1e84f3dd0314c0f7b2291e5b200ac8c7c3b9258460405161131b9190611c88565b60405180910390a35b50505050565b600073ffffffffffffffffffffffffffffffffffffffff168373ffffffffffffffffffffffffffffffffffffffff160361137c578060026000828254611370919061221b565b9250508190555061144f565b60008060008573ffffffffffffffffffffffffffffffffffffffff1673ffffffffffffffffffffffffffffffffffffffff16815260200190815260200160002054905081811015611408578381836040517fe450d38c0000000000000000000000000000000000000000000000000000000081526004016113ff939291906121b5565b60405180910390fd5b8181036000808673ffffffffffffffffffffffffffffffffffffffff1673ffffffffffffffffffffffffffffffffffffffff16815260200190815260200160002081905550505b600073ffffffffffffffffffffffffffffffffffffffff168273ffffffffffffffffffffffffffffffffffffffff160361149857806002600082825403925050819055506114e5565b806000808473ffffffffffffffffffffffffffffffffffffffff1673ffffffffffffffffffffffffffffffffffffffff168152602001908152602001600020600082825401925050819055505b8173ffffffffffffffffffffffffffffffffffffffff168373ffffffffffffffffffffffffffffffffffffffff167fddf252ad1be2c89b69c2b068fc378daa952ba7f163c4a11628f55a4df523b3ef836040516115429190611c88565b60405180910390a3505050565b60006040517f190100000000000000000000000000000000000000000000000000000000000081528360028201528260228201526042812091505092915050565b60008060007f7fffffffffffffffffffffffffffffff5d576e7357a4501ddfe92f46681b20a08460001c11156115d057600060038592509250925061167a565b6000600188888888604051600081526020016040526040516115f5949392919061224f565b6020604051602081039080840390855afa158015611617573d6000803e3d6000fd5b505050602060405103519050600073ffffffffffffffffffffffffffffffffffffffff168173ffffffffffffffffffffffffffffffffffffffff160361166b57600060016000801b9350935093505061167a565b8060008060001b935093509350505b9450945094915050565b6000600381111561169857611697612294565b5b8260038111156116ab576116aa612294565b5b03156117e457600160038111156116c5576116c4612294565b5b8260038111156116d8576116d7612294565b5b0361170f576040517ff645eedf00000000000000000000000000000000000000000000000000000000815260040160405180910390fd5b6002600381111561172357611722612294565b5b82600381111561173657611735612294565b5b0361177b578060001c6040517ffce698f70000000000000000000000000000000000000000000000000000000081526004016117729190611c88565b60405180910390fd5b60038081111561178e5761178d612294565b5b8260038111156117a1576117a0612294565b5b036117e357806040517fd78bce0c0000000000000000000000000000000000000000000000000000000081526004016117da9190611e40565b60405180910390fd5b5b5050565b60007f8b73c3c69bb8fe3d512ecc4cf759cc79239f7b179b0ffacaa9a75d522b39400f7f00000000000000000000000000000000000000000000000000000000000000007f000000000000000000000000000000000000000000000000000000000000000046306040516020016118639594939291906122c3565b60405160208183030381529060405280519060200120905090565b6000600560009054906101000a900473ffffffffffffffffffffffffffffffffffffffff16905081600560006101000a81548173ffffffffffffffffffffffffffffffffffffffff021916908373ffffffffffffffffffffffffffffffffffffffff1602179055508173ffffffffffffffffffffffffffffffffffffffff168173ffffffffffffffffffffffffffffffffffffffff167f8be0079c531659141344cd1fd0a4f28419497f9722a3daafe3b4186f6b6457e060405160405180910390a35050565b606060ff60001b83146119615761195a836119f4565b90506119ee565b81805461196d906120cb565b80601f0160208091040260200160405190810160405280929190818152602001828054611999906120cb565b80156119e65780601f106119bb576101008083540402835291602001916119e6565b820191906000526020600020905b8154815290600101906020018083116119c957829003601f168201915b505050505090505b92915050565b60606000611a0183611a68565b90506000602067ffffffffffffffff811115611a2057611a1f612186565b5b6040519080825280601f01601f191660200182016040528015611a525781602001600182028036833780820191505090505b5090508181528360208201528092505050919050565b60008060ff8360001c169050601f811115611aaf576040517fb3512b0c00000000000000000000000000000000000000000000000000000000815260040160405180910390fd5b80915050919050565b600081519050919050565b600082825260208201905092915050565b60005b83811015611af2578082015181840152602081019050611ad7565b60008484015250505050565b6000601f19601f8301169050919050565b6000611b1a82611ab8565b611b248185611ac3565b9350611b34818560208601611ad4565b611b3d81611afe565b840191505092915050565b60006020820190508181036000830152611b628184611b0f565b905092915050565b600080fd5b600073ffffffffffffffffffffffffffffffffffffffff82169050919050565b6000611b9a82611b6f565b9050919050565b611baa81611b8f565b8114611bb557600080fd5b50565b600081359050611bc781611ba1565b92915050565b6000819050919050565b611be081611bcd565b8114611beb57600080fd5b50565b600081359050611bfd81611bd7565b92915050565b60008060408385031215611c1a57611c19611b6a565b5b6000611c2885828601611bb8565b9250506020611c3985828601611bee565b9150509250929050565b60008115159050919050565b611c5881611c43565b82525050565b6000602082019050611c736000830184611c4f565b92915050565b611c8281611bcd565b82525050565b6000602082019050611c9d6000830184611c79565b92915050565b600080600060608486031215611cbc57611cbb611b6a565b5b6000611cca86828701611bb8565b9350506020611cdb86828701611bb8565b9250506040611cec86828701611bee565b9150509250925092565b600060ff82169050919050565b611d0c81611cf6565b8114611d1757600080fd5b50565b600081359050611d2981611d03565b92915050565b6000819050919050565b611d4281611d2f565b8114611d4d57600080fd5b50565b600081359050611d5f81611d39565b92915050565b600080600080600080600060e0888a031215611d8457611d83611b6a565b5b6000611d928a828b01611bb8565b9750506020611da38a828b01611bb8565b9650506040611db48a828b01611bee565b9550506060611dc58a828b01611bee565b9450506080611dd68a828b01611d1a565b93505060a0611de78a828b01611d50565b92505060c0611df88a828b01611d50565b91505092959891949750929550565b611e1081611cf6565b82525050565b6000602082019050611e2b6000830184611e07565b92915050565b611e3a81611d2f565b82525050565b6000602082019050611e556000830184611e31565b92915050565b600060208284031215611e7157611e70611b6a565b5b6000611e7f84828501611bee565b91505092915050565b600060208284031215611e9e57611e9d611b6a565b5b6000611eac84828501611bb8565b91505092915050565b60007fff0000000000000000000000000000000000000000000000000000000000000082169050919050565b611eea81611eb5565b82525050565b611ef981611b8f565b82525050565b600081519050919050565b600082825260208201905092915050565b6000819050602082019050919050565b611f3481611bcd565b82525050565b6000611f468383611f2b565b60208301905092915050565b6000602082019050919050565b6000611f6a82611eff565b611f748185611f0a565b9350611f7f83611f1b565b8060005b83811015611fb0578151611f978882611f3a565b9750611fa283611f52565b925050600181019050611f83565b5085935050505092915050565b600060e082019050611fd2600083018a611ee1565b8181036020830152611fe48189611b0f565b90508181036040830152611ff88188611b0f565b90506120076060830187611c79565b6120146080830186611ef0565b61202160a0830185611e31565b81810360c08301526120338184611f5f565b905098975050505050505050565b60006020820190506120566000830184611ef0565b92915050565b6000806040838503121561207357612072611b6a565b5b600061208185828601611bb8565b925050602061209285828601611bb8565b9150509250929050565b7f4e487b7100000000000000000000000000000000000000000000000000000000600052602260045260246000fd5b600060028204905060018216806120e357607f821691505b6020821081036120f6576120f561209c565b5b50919050565b600060c0820190506121116000830189611e31565b61211e6020830188611ef0565b61212b6040830187611ef0565b6121386060830186611c79565b6121456080830185611c79565b61215260a0830184611c79565b979650505050505050565b60006040820190506121726000830185611ef0565b61217f6020830184611ef0565b9392505050565b7f4e487b7100000000000000000000000000000000000000000000000000000000600052604160045260246000fd5b60006060820190506121ca6000830186611ef0565b6121d76020830185611c79565b6121e46040830184611c79565b949350505050565b7f4e487b7100000000000000000000000000000000000000000000000000000000600052601160045260246000fd5b600061222682611bcd565b915061223183611bcd565b9250828201905080821115612249576122486121ec565b5b92915050565b60006080820190506122646000830187611e31565b6122716020830186611e07565b61227e6040830185611e31565b61228b6060830184611e31565b95945050505050565b7f4e487b7100000000000000000000000000000000000000000000000000000000600052602160045260246000fd5b600060a0820190506122d86000830188611e31565b6122e56020830187611e31565b6122f26040830186611e31565b6122ff6060830185611c79565b61230c6080830184611ef0565b969550505050505056fea2646970667358221220e81af0510ba5b82908f836ea83d7bd309a0a2beda3e5e023afc89295063f9e0b64736f6c634300081c0033",
  "linkReferences": {},
  "deployedLinkReferences": {}
}